{
  "abi": [
    {
      "inputs": [
        {
          "internalType": "address",
          "name": "_ethUsdPriceFeed",
          "type": "address"
        }
      ],
      "stateMutability": "nonpayable",
      "type": "constructor"
    },
    {
      "inputs": [],
      "name": "admin",
      "outputs": [
        {
          "internalType": "address payable",
          "name": "",
          "type": "address"
        }
      ],
      "stateMutability": "view",
      "type": "function"
    },
    {
      "inputs": [],
      "name": "auctionMarketContractAddress",
      "outputs": [
        {
          "internalType": "address",
          "name": "",
          "type": "address"
        }
      ],
      "stateMutability": "view",
      "type": "function"
    },
    {
      "inputs": [
        {
          "internalType": "uint256",
          "name": "_newFee",
          "type": "uint256"
        }
      ],
      "name": "changeAuctionFee",
      "outputs": [],
      "stateMutability": "nonpayable",
      "type": "function"
    },
    {
      "inputs": [
        {
          "internalType": "uint256",
          "name": "_newFee",
          "type": "uint256"
        }
      ],
      "name": "changeMarketFee",
      "outputs": [],
      "stateMutability": "nonpayable",
      "type": "function"
    },
    {
      "inputs": [
        {
          "internalType": "uint256",
          "name": "_newFee",
          "type": "uint256"
        }
      ],
      "name": "changeStoreFee",
      "outputs": [],
      "stateMutability": "nonpayable",
      "type": "function"
    },
    {
      "inputs": [
        {
          "internalType": "uint256",
          "name": "amountInUSD",
          "type": "uint256"
        }
      ],
      "name": "convertUSDToETH",
      "outputs": [
        {
          "internalType": "uint256",
          "name": "",
          "type": "uint256"
        }
      ],
      "stateMutability": "nonpayable",
      "type": "function"
    },
    {
      "inputs": [],
      "name": "ethUsdPriceFeed",
      "outputs": [
        {
          "internalType": "address",
          "name": "",
          "type": "address"
        }
      ],
      "stateMutability": "view",
      "type": "function"
    },
    {
      "inputs": [],
      "name": "getPrice",
      "outputs": [
        {
          "internalType": "uint256",
          "name": "",
          "type": "uint256"
        },
        {
          "internalType": "uint256",
          "name": "",
          "type": "uint256"
        }
      ],
      "stateMutability": "nonpayable",
      "type": "function"
    },
    {
      "inputs": [],
      "name": "marketContractAddress",
      "outputs": [
        {
          "internalType": "address",
          "name": "",
          "type": "address"
        }
      ],
      "stateMutability": "view",
      "type": "function"
    },
    {
      "inputs": [
        {
          "internalType": "address",
          "name": "_auctionsContractAddress",
          "type": "address"
        }
      ],
      "name": "setAuctionMarketContractAddress",
      "outputs": [],
      "stateMutability": "nonpayable",
      "type": "function"
    },
    {
      "inputs": [
        {
          "internalType": "address",
          "name": "_mainMarketAddress",
          "type": "address"
        }
      ],
      "name": "setMarketContractAddress",
      "outputs": [],
      "stateMutability": "nonpayable",
      "type": "function"
    },
    {
      "inputs": [
        {
          "internalType": "address",
          "name": "_storeFactoryAddress",
          "type": "address"
        }
      ],
      "name": "setStoreFactoryAddress",
      "outputs": [],
      "stateMutability": "nonpayable",
      "type": "function"
    },
    {
      "inputs": [],
      "name": "storeFactoryAddress",
      "outputs": [
        {
          "internalType": "address",
          "name": "",
          "type": "address"
        }
      ],
      "stateMutability": "view",
      "type": "function"
    },
    {
      "inputs": [],
      "name": "withdrawBalance",
      "outputs": [],
      "stateMutability": "nonpayable",
      "type": "function"
    },
    {
      "stateMutability": "payable",
      "type": "receive"
    }
  ],
  "bytecode": "608060405234801561001057600080fd5b506040516109cf3803806109cf83398101604081905261002f91610062565b60008054336001600160a01b031991821617909155600180549091166001600160a01b0392909216919091179055610092565b60006020828403121561007457600080fd5b81516001600160a01b038116811461008b57600080fd5b9392505050565b61092e806100a16000396000f3fe6080604052600436106100e15760003560e01c80636138dd071161007f578063c73358de11610059578063c73358de14610259578063d3703a1614610279578063f5ef33c314610299578063f851a440146102b957600080fd5b80636138dd07146101ef578063924764d41461020f57806398d5fdca1461022f57600080fd5b80633be0dcb8116100bb5780633be0dcb81461016c57806342f6fb291461019a57806346cb0860146101ba5780635fd8c710146101da57600080fd5b80631ded8844146100ed5780633087cbe31461012a578063381502e31461014a57600080fd5b366100e857005b600080fd5b3480156100f957600080fd5b5060035461010d906001600160a01b031681565b6040516001600160a01b0390911681526020015b60405180910390f35b34801561013657600080fd5b5060025461010d906001600160a01b031681565b34801561015657600080fd5b5061016a6101653660046106a5565b6102d9565b005b34801561017857600080fd5b5061018c6101873660046106a5565b61036e565b604051908152602001610121565b3480156101a657600080fd5b5060015461010d906001600160a01b031681565b3480156101c657600080fd5b5060045461010d906001600160a01b031681565b3480156101e657600080fd5b5061016a6103ab565b3480156101fb57600080fd5b5061016a61020a3660046106a5565b610412565b34801561021b57600080fd5b5061016a61022a3660046106be565b61046d565b34801561023b57600080fd5b506102446104b9565b60408051928352602083019190915201610121565b34801561026557600080fd5b5061016a6102743660046106be565b6105b4565b34801561028557600080fd5b5061016a6102943660046106a5565b610600565b3480156102a557600080fd5b5061016a6102b43660046106be565b610659565b3480156102c557600080fd5b5060005461010d906001600160a01b031681565b6000546001600160a01b0316331461030c5760405162461bcd60e51b8152600401610303906106ee565b60405180910390fd5b60035460405163e09b858d60e01b8152600481018390526001600160a01b039091169063e09b858d906024015b600060405180830381600087803b15801561035357600080fd5b505af1158015610367573d6000803e3d6000fd5b5050505050565b600080600061037b6104b9565b909250905060008261038e83600a610821565b610398908761082d565b6103a29190610844565b95945050505050565b6000546001600160a01b031633146103d55760405162461bcd60e51b8152600401610303906106ee565b600080546040516001600160a01b03909116914780156108fc02929091818181858888f1935050505015801561040f573d6000803e3d6000fd5b50565b6000546001600160a01b0316331461043c5760405162461bcd60e51b8152600401610303906106ee565b600254604051636a1db1bf60e01b8152600481018390526001600160a01b0390911690636a1db1bf90602401610339565b6000546001600160a01b031633146104975760405162461bcd60e51b8152600401610303906106ee565b600380546001600160a01b0319166001600160a01b0392909216919091179055565b6000806000600160009054906101000a90046001600160a01b031690506000816001600160a01b031663feaf968c6040518163ffffffff1660e01b815260040160a060405180830381865afa158015610516573d6000803e3d6000fd5b505050506040513d601f19601f8201168201806040525081019061053a9190610885565b5050509150506000826001600160a01b031663313ce5676040518163ffffffff1660e01b8152600401602060405180830381865afa158015610580573d6000803e3d6000fd5b505050506040513d601f19601f820116820180604052508101906105a491906108d5565b919560ff90921694509092505050565b6000546001600160a01b031633146105de5760405162461bcd60e51b8152600401610303906106ee565b600280546001600160a01b0319166001600160a01b0392909216919091179055565b6000546001600160a01b0316331461062a5760405162461bcd60e51b8152600401610303906106ee565b60048054604051636a1db1bf60e01b81529182018390526001600160a01b031690636a1db1bf90602401610339565b6000546001600160a01b031633146106835760405162461bcd60e51b8152600401610303906106ee565b600480546001600160a01b0319166001600160a01b0392909216919091179055565b6000602082840312156106b757600080fd5b5035919050565b6000602082840312156106d057600080fd5b81356001600160a01b03811681146106e757600080fd5b9392505050565b60208082526018908201527f6f6e6c792061646d696e2063616e2063616c6c20746869730000000000000000604082015260600190565b634e487b7160e01b600052601160045260246000fd5b600181815b8085111561077657816000190482111561075c5761075c610725565b8085161561076957918102915b93841c9390800290610740565b509250929050565b60008261078d5750600161081b565b8161079a5750600061081b565b81600181146107b057600281146107ba576107d6565b600191505061081b565b60ff8411156107cb576107cb610725565b50506001821b61081b565b5060208310610133831016604e8410600b84101617156107f9575081810a61081b565b610803838361073b565b806000190482111561081757610817610725565b0290505b92915050565b60006106e7838361077e565b808202811582820484141761081b5761081b610725565b60008261086157634e487b7160e01b600052601260045260246000fd5b500490565b805169ffffffffffffffffffff8116811461088057600080fd5b919050565b600080600080600060a0868803121561089d57600080fd5b6108a686610866565b94506020860151935060408601519250606086015191506108c960808701610866565b90509295509295909350565b6000602082840312156108e757600080fd5b815160ff811681146106e757600080fdfea2646970667358221220ec6071dfa422088234d5f352770685402f09db56cca4b3a03e2ba2902b17a57f64736f6c63430008130033",
  "bytecodeSha1": "3cc27b53420c5869f94b3e017b81d2b492324c59",
  "compiler": {
    "evm_version": "istanbul",
    "optimizer": {
      "enabled": true,
      "runs": 200
    },
    "version": "0.8.19+commit.7dd6d404"
  },
  "contractName": "Administration",
  "language": "Solidity",
  "natspec": {
    "kind": "dev",
    "methods": {
      "getPrice()": {
        "details": "Get current ETH/USD price using ChainLink price feed",
        "returns": {
          "_0": "the ETH/USD price , the number of decimals used for this price"
        }
      }
    },
    "version": 1
  },
  "opcodes": "PUSH1 0x80 PUSH1 0x40 MSTORE PUSH1 0x4 CALLDATASIZE LT PUSH2 0xE1 JUMPI PUSH1 0x0 CALLDATALOAD PUSH1 0xE0 SHR DUP1 PUSH4 0x6138DD07 GT PUSH2 0x7F JUMPI DUP1 PUSH4 0xC73358DE GT PUSH2 0x59 JUMPI DUP1 PUSH4 0xC73358DE EQ PUSH2 0x259 JUMPI DUP1 PUSH4 0xD3703A16 EQ PUSH2 0x279 JUMPI DUP1 PUSH4 0xF5EF33C3 EQ PUSH2 0x299 JUMPI DUP1 PUSH4 0xF851A440 EQ PUSH2 0x2B9 JUMPI PUSH1 0x0 DUP1 REVERT JUMPDEST DUP1 PUSH4 0x6138DD07 EQ PUSH2 0x1EF JUMPI DUP1 PUSH4 0x924764D4 EQ PUSH2 0x20F JUMPI DUP1 PUSH4 0x98D5FDCA EQ PUSH2 0x22F JUMPI PUSH1 0x0 DUP1 REVERT JUMPDEST DUP1 PUSH4 0x3BE0DCB8 GT PUSH2 0xBB JUMPI DUP1 PUSH4 0x3BE0DCB8 EQ PUSH2 0x16C JUMPI DUP1 PUSH4 0x42F6FB29 EQ PUSH2 0x19A JUMPI DUP1 PUSH4 0x46CB0860 EQ PUSH2 0x1BA JUMPI DUP1 PUSH4 0x5FD8C710 EQ PUSH2 0x1DA JUMPI PUSH1 0x0 DUP1 REVERT JUMPDEST DUP1 PUSH4 0x1DED8844 EQ PUSH2 0xED JUMPI DUP1 PUSH4 0x3087CBE3 EQ PUSH2 0x12A JUMPI DUP1 PUSH4 0x381502E3 EQ PUSH2 0x14A JUMPI PUSH1 0x0 DUP1 REVERT JUMPDEST CALLDATASIZE PUSH2 0xE8 JUMPI STOP JUMPDEST PUSH1 0x0 DUP1 REVERT JUMPDEST CALLVALUE DUP1 ISZERO PUSH2 0xF9 JUMPI PUSH1 0x0 DUP1 REVERT JUMPDEST POP PUSH1 0x3 SLOAD PUSH2 0x10D SWAP1 PUSH1 0x1 PUSH1 0x1 PUSH1 0xA0 SHL SUB AND DUP2 JUMP JUMPDEST PUSH1 0x40 MLOAD PUSH1 0x1 PUSH1 0x1 PUSH1 0xA0 SHL SUB SWAP1 SWAP2 AND DUP2 MSTORE PUSH1 0x20 ADD JUMPDEST PUSH1 0x40 MLOAD DUP1 SWAP2 SUB SWAP1 RETURN JUMPDEST CALLVALUE DUP1 ISZERO PUSH2 0x136 JUMPI PUSH1 0x0 DUP1 REVERT JUMPDEST POP PUSH1 0x2 SLOAD PUSH2 0x10D SWAP1 PUSH1 0x1 PUSH1 0x1 PUSH1 0xA0 SHL SUB AND DUP2 JUMP JUMPDEST CALLVALUE DUP1 ISZERO PUSH2 0x156 JUMPI PUSH1 0x0 DUP1 REVERT JUMPDEST POP PUSH2 0x16A PUSH2 0x165 CALLDATASIZE PUSH1 0x4 PUSH2 0x6A5 JUMP JUMPDEST PUSH2 0x2D9 JUMP JUMPDEST STOP JUMPDEST CALLVALUE DUP1 ISZERO PUSH2 0x178 JUMPI PUSH1 0x0 DUP1 REVERT JUMPDEST POP PUSH2 0x18C PUSH2 0x187 CALLDATASIZE PUSH1 0x4 PUSH2 0x6A5 JUMP JUMPDEST PUSH2 0x36E JUMP JUMPDEST PUSH1 0x40 MLOAD SWAP1 DUP2 MSTORE PUSH1 0x20 ADD PUSH2 0x121 JUMP JUMPDEST CALLVALUE DUP1 ISZERO PUSH2 0x1A6 JUMPI PUSH1 0x0 DUP1 REVERT JUMPDEST POP PUSH1 0x1 SLOAD PUSH2 0x10D SWAP1 PUSH1 0x1 PUSH1 0x1 PUSH1 0xA0 SHL SUB AND DUP2 JUMP JUMPDEST CALLVALUE DUP1 ISZERO PUSH2 0x1C6 JUMPI PUSH1 0x0 DUP1 REVERT JUMPDEST POP PUSH1 0x4 SLOAD PUSH2 0x10D SWAP1 PUSH1 0x1 PUSH1 0x1 PUSH1 0xA0 SHL SUB AND DUP2 JUMP JUMPDEST CALLVALUE DUP1 ISZERO PUSH2 0x1E6 JUMPI PUSH1 0x0 DUP1 REVERT JUMPDEST POP PUSH2 0x16A PUSH2 0x3AB JUMP JUMPDEST CALLVALUE DUP1 ISZERO PUSH2 0x1FB JUMPI PUSH1 0x0 DUP1 REVERT JUMPDEST POP PUSH2 0x16A PUSH2 0x20A CALLDATASIZE PUSH1 0x4 PUSH2 0x6A5 JUMP JUMPDEST PUSH2 0x412 JUMP JUMPDEST CALLVALUE DUP1 ISZERO PUSH2 0x21B JUMPI PUSH1 0x0 DUP1 REVERT JUMPDEST POP PUSH2 0x16A PUSH2 0x22A CALLDATASIZE PUSH1 0x4 PUSH2 0x6BE JUMP JUMPDEST PUSH2 0x46D JUMP JUMPDEST CALLVALUE DUP1 ISZERO PUSH2 0x23B JUMPI PUSH1 0x0 DUP1 REVERT JUMPDEST POP PUSH2 0x244 PUSH2 0x4B9 JUMP JUMPDEST PUSH1 0x40 DUP1 MLOAD SWAP3 DUP4 MSTORE PUSH1 0x20 DUP4 ADD SWAP2 SWAP1 SWAP2 MSTORE ADD PUSH2 0x121 JUMP JUMPDEST CALLVALUE DUP1 ISZERO PUSH2 0x265 JUMPI PUSH1 0x0 DUP1 REVERT JUMPDEST POP PUSH2 0x16A PUSH2 0x274 CALLDATASIZE PUSH1 0x4 PUSH2 0x6BE JUMP JUMPDEST PUSH2 0x5B4 JUMP JUMPDEST CALLVALUE DUP1 ISZERO PUSH2 0x285 JUMPI PUSH1 0x0 DUP1 REVERT JUMPDEST POP PUSH2 0x16A PUSH2 0x294 CALLDATASIZE PUSH1 0x4 PUSH2 0x6A5 JUMP JUMPDEST PUSH2 0x600 JUMP JUMPDEST CALLVALUE DUP1 ISZERO PUSH2 0x2A5 JUMPI PUSH1 0x0 DUP1 REVERT JUMPDEST POP PUSH2 0x16A PUSH2 0x2B4 CALLDATASIZE PUSH1 0x4 PUSH2 0x6BE JUMP JUMPDEST PUSH2 0x659 JUMP JUMPDEST CALLVALUE DUP1 ISZERO PUSH2 0x2C5 JUMPI PUSH1 0x0 DUP1 REVERT JUMPDEST POP PUSH1 0x0 SLOAD PUSH2 0x10D SWAP1 PUSH1 0x1 PUSH1 0x1 PUSH1 0xA0 SHL SUB AND DUP2 JUMP JUMPDEST PUSH1 0x0 SLOAD PUSH1 0x1 PUSH1 0x1 PUSH1 0xA0 SHL SUB AND CALLER EQ PUSH2 0x30C JUMPI PUSH1 0x40 MLOAD PUSH3 0x461BCD PUSH1 0xE5 SHL DUP2 MSTORE PUSH1 0x4 ADD PUSH2 0x303 SWAP1 PUSH2 0x6EE JUMP JUMPDEST PUSH1 0x40 MLOAD DUP1 SWAP2 SUB SWAP1 REVERT JUMPDEST PUSH1 0x3 SLOAD PUSH1 0x40 MLOAD PUSH4 0xE09B858D PUSH1 0xE0 SHL DUP2 MSTORE PUSH1 0x4 DUP2 ADD DUP4 SWAP1 MSTORE PUSH1 0x1 PUSH1 0x1 PUSH1 0xA0 SHL SUB SWAP1 SWAP2 AND SWAP1 PUSH4 0xE09B858D SWAP1 PUSH1 0x24 ADD JUMPDEST PUSH1 0x0 PUSH1 0x40 MLOAD DUP1 DUP4 SUB DUP2 PUSH1 0x0 DUP8 DUP1 EXTCODESIZE ISZERO DUP1 ISZERO PUSH2 0x353 JUMPI PUSH1 0x0 DUP1 REVERT JUMPDEST POP GAS CALL ISZERO DUP1 ISZERO PUSH2 0x367 JUMPI RETURNDATASIZE PUSH1 0x0 DUP1 RETURNDATACOPY RETURNDATASIZE PUSH1 0x0 REVERT JUMPDEST POP POP POP POP POP JUMP JUMPDEST PUSH1 0x0 DUP1 PUSH1 0x0 PUSH2 0x37B PUSH2 0x4B9 JUMP JUMPDEST SWAP1 SWAP3 POP SWAP1 POP PUSH1 0x0 DUP3 PUSH2 0x38E DUP4 PUSH1 0xA PUSH2 0x821 JUMP JUMPDEST PUSH2 0x398 SWAP1 DUP8 PUSH2 0x82D JUMP JUMPDEST PUSH2 0x3A2 SWAP2 SWAP1 PUSH2 0x844 JUMP JUMPDEST SWAP6 SWAP5 POP POP POP POP POP JUMP JUMPDEST PUSH1 0x0 SLOAD PUSH1 0x1 PUSH1 0x1 PUSH1 0xA0 SHL SUB AND CALLER EQ PUSH2 0x3D5 JUMPI PUSH1 0x40 MLOAD PUSH3 0x461BCD PUSH1 0xE5 SHL DUP2 MSTORE PUSH1 0x4 ADD PUSH2 0x303 SWAP1 PUSH2 0x6EE JUMP JUMPDEST PUSH1 0x0 DUP1 SLOAD PUSH1 0x40 MLOAD PUSH1 0x1 PUSH1 0x1 PUSH1 0xA0 SHL SUB SWAP1 SWAP2 AND SWAP2 SELFBALANCE DUP1 ISZERO PUSH2 0x8FC MUL SWAP3 SWAP1 SWAP2 DUP2 DUP2 DUP2 DUP6 DUP9 DUP9 CALL SWAP4 POP POP POP POP ISZERO DUP1 ISZERO PUSH2 0x40F JUMPI RETURNDATASIZE PUSH1 0x0 DUP1 RETURNDATACOPY RETURNDATASIZE PUSH1 0x0 REVERT JUMPDEST POP JUMP JUMPDEST PUSH1 0x0 SLOAD PUSH1 0x1 PUSH1 0x1 PUSH1 0xA0 SHL SUB AND CALLER EQ PUSH2 0x43C JUMPI PUSH1 0x40 MLOAD PUSH3 0x461BCD PUSH1 0xE5 SHL DUP2 MSTORE PUSH1 0x4 ADD PUSH2 0x303 SWAP1 PUSH2 0x6EE JUMP JUMPDEST PUSH1 0x2 SLOAD PUSH1 0x40 MLOAD PUSH4 0x6A1DB1BF PUSH1 0xE0 SHL DUP2 MSTORE PUSH1 0x4 DUP2 ADD DUP4 SWAP1 MSTORE PUSH1 0x1 PUSH1 0x1 PUSH1 0xA0 SHL SUB SWAP1 SWAP2 AND SWAP1 PUSH4 0x6A1DB1BF SWAP1 PUSH1 0x24 ADD PUSH2 0x339 JUMP JUMPDEST PUSH1 0x0 SLOAD PUSH1 0x1 PUSH1 0x1 PUSH1 0xA0 SHL SUB AND CALLER EQ PUSH2 0x497 JUMPI PUSH1 0x40 MLOAD PUSH3 0x461BCD PUSH1 0xE5 SHL DUP2 MSTORE PUSH1 0x4 ADD PUSH2 0x303 SWAP1 PUSH2 0x6EE JUMP JUMPDEST PUSH1 0x3 DUP1 SLOAD PUSH1 0x1 PUSH1 0x1 PUSH1 0xA0 SHL SUB NOT AND PUSH1 0x1 PUSH1 0x1 PUSH1 0xA0 SHL SUB SWAP3 SWAP1 SWAP3 AND SWAP2 SWAP1 SWAP2 OR SWAP1 SSTORE JUMP JUMPDEST PUSH1 0x0 DUP1 PUSH1 0x0 PUSH1 0x1 PUSH1 0x0 SWAP1 SLOAD SWAP1 PUSH2 0x100 EXP SWAP1 DIV PUSH1 0x1 PUSH1 0x1 PUSH1 0xA0 SHL SUB AND SWAP1 POP PUSH1 0x0 DUP2 PUSH1 0x1 PUSH1 0x1 PUSH1 0xA0 SHL SUB AND PUSH4 0xFEAF968C PUSH1 0x40 MLOAD DUP2 PUSH4 0xFFFFFFFF AND PUSH1 0xE0 SHL DUP2 MSTORE PUSH1 0x4 ADD PUSH1 0xA0 PUSH1 0x40 MLOAD DUP1 DUP4 SUB DUP2 DUP7 GAS STATICCALL ISZERO DUP1 ISZERO PUSH2 0x516 JUMPI RETURNDATASIZE PUSH1 0x0 DUP1 RETURNDATACOPY RETURNDATASIZE PUSH1 0x0 REVERT JUMPDEST POP POP POP POP PUSH1 0x40 MLOAD RETURNDATASIZE PUSH1 0x1F NOT PUSH1 0x1F DUP3 ADD AND DUP3 ADD DUP1 PUSH1 0x40 MSTORE POP DUP2 ADD SWAP1 PUSH2 0x53A SWAP2 SWAP1 PUSH2 0x885 JUMP JUMPDEST POP POP POP SWAP2 POP POP PUSH1 0x0 DUP3 PUSH1 0x1 PUSH1 0x1 PUSH1 0xA0 SHL SUB AND PUSH4 0x313CE567 PUSH1 0x40 MLOAD DUP2 PUSH4 0xFFFFFFFF AND PUSH1 0xE0 SHL DUP2 MSTORE PUSH1 0x4 ADD PUSH1 0x20 PUSH1 0x40 MLOAD DUP1 DUP4 SUB DUP2 DUP7 GAS STATICCALL ISZERO DUP1 ISZERO PUSH2 0x580 JUMPI RETURNDATASIZE PUSH1 0x0 DUP1 RETURNDATACOPY RETURNDATASIZE PUSH1 0x0 REVERT JUMPDEST POP POP POP POP PUSH1 0x40 MLOAD RETURNDATASIZE PUSH1 0x1F NOT PUSH1 0x1F DUP3 ADD AND DUP3 ADD DUP1 PUSH1 0x40 MSTORE POP DUP2 ADD SWAP1 PUSH2 0x5A4 SWAP2 SWAP1 PUSH2 0x8D5 JUMP JUMPDEST SWAP2 SWAP6 PUSH1 0xFF SWAP1 SWAP3 AND SWAP5 POP SWAP1 SWAP3 POP POP POP JUMP JUMPDEST PUSH1 0x0 SLOAD PUSH1 0x1 PUSH1 0x1 PUSH1 0xA0 SHL SUB AND CALLER EQ PUSH2 0x5DE JUMPI PUSH1 0x40 MLOAD PUSH3 0x461BCD PUSH1 0xE5 SHL DUP2 MSTORE PUSH1 0x4 ADD PUSH2 0x303 SWAP1 PUSH2 0x6EE JUMP JUMPDEST PUSH1 0x2 DUP1 SLOAD PUSH1 0x1 PUSH1 0x1 PUSH1 0xA0 SHL SUB NOT AND PUSH1 0x1 PUSH1 0x1 PUSH1 0xA0 SHL SUB SWAP3 SWAP1 SWAP3 AND SWAP2 SWAP1 SWAP2 OR SWAP1 SSTORE JUMP JUMPDEST PUSH1 0x0 SLOAD PUSH1 0x1 PUSH1 0x1 PUSH1 0xA0 SHL SUB AND CALLER EQ PUSH2 0x62A JUMPI PUSH1 0x40 MLOAD PUSH3 0x461BCD PUSH1 0xE5 SHL DUP2 MSTORE PUSH1 0x4 ADD PUSH2 0x303 SWAP1 PUSH2 0x6EE JUMP JUMPDEST PUSH1 0x4 DUP1 SLOAD PUSH1 0x40 MLOAD PUSH4 0x6A1DB1BF PUSH1 0xE0 SHL DUP2 MSTORE SWAP2 DUP3 ADD DUP4 SWAP1 MSTORE PUSH1 0x1 PUSH1 0x1 PUSH1 0xA0 SHL SUB AND SWAP1 PUSH4 0x6A1DB1BF SWAP1 PUSH1 0x24 ADD PUSH2 0x339 JUMP JUMPDEST PUSH1 0x0 SLOAD PUSH1 0x1 PUSH1 0x1 PUSH1 0xA0 SHL SUB AND CALLER EQ PUSH2 0x683 JUMPI PUSH1 0x40 MLOAD PUSH3 0x461BCD PUSH1 0xE5 SHL DUP2 MSTORE PUSH1 0x4 ADD PUSH2 0x303 SWAP1 PUSH2 0x6EE JUMP JUMPDEST PUSH1 0x4 DUP1 SLOAD PUSH1 0x1 PUSH1 0x1 PUSH1 0xA0 SHL SUB NOT AND PUSH1 0x1 PUSH1 0x1 PUSH1 0xA0 SHL SUB SWAP3 SWAP1 SWAP3 AND SWAP2 SWAP1 SWAP2 OR SWAP1 SSTORE JUMP JUMPDEST PUSH1 0x0 PUSH1 0x20 DUP3 DUP5 SUB SLT ISZERO PUSH2 0x6B7 JUMPI PUSH1 0x0 DUP1 REVERT JUMPDEST POP CALLDATALOAD SWAP2 SWAP1 POP JUMP JUMPDEST PUSH1 0x0 PUSH1 0x20 DUP3 DUP5 SUB SLT ISZERO PUSH2 0x6D0 JUMPI PUSH1 0x0 DUP1 REVERT JUMPDEST DUP2 CALLDATALOAD PUSH1 0x1 PUSH1 0x1 PUSH1 0xA0 SHL SUB DUP2 AND DUP2 EQ PUSH2 0x6E7 JUMPI PUSH1 0x0 DUP1 REVERT JUMPDEST SWAP4 SWAP3 POP POP POP JUMP JUMPDEST PUSH1 0x20 DUP1 DUP3 MSTORE PUSH1 0x18 SWAP1 DUP3 ADD MSTORE PUSH32 0x6F6E6C792061646D696E2063616E2063616C6C20746869730000000000000000 PUSH1 0x40 DUP3 ADD MSTORE PUSH1 0x60 ADD SWAP1 JUMP JUMPDEST PUSH4 0x4E487B71 PUSH1 0xE0 SHL PUSH1 0x0 MSTORE PUSH1 0x11 PUSH1 0x4 MSTORE PUSH1 0x24 PUSH1 0x0 REVERT JUMPDEST PUSH1 0x1 DUP2 DUP2 JUMPDEST DUP1 DUP6 GT ISZERO PUSH2 0x776 JUMPI DUP2 PUSH1 0x0 NOT DIV DUP3 GT ISZERO PUSH2 0x75C JUMPI PUSH2 0x75C PUSH2 0x725 JUMP JUMPDEST DUP1 DUP6 AND ISZERO PUSH2 0x769 JUMPI SWAP2 DUP2 MUL SWAP2 JUMPDEST SWAP4 DUP5 SHR SWAP4 SWAP1 DUP1 MUL SWAP1 PUSH2 0x740 JUMP JUMPDEST POP SWAP3 POP SWAP3 SWAP1 POP JUMP JUMPDEST PUSH1 0x0 DUP3 PUSH2 0x78D JUMPI POP PUSH1 0x1 PUSH2 0x81B JUMP JUMPDEST DUP2 PUSH2 0x79A JUMPI POP PUSH1 0x0 PUSH2 0x81B JUMP JUMPDEST DUP2 PUSH1 0x1 DUP2 EQ PUSH2 0x7B0 JUMPI PUSH1 0x2 DUP2 EQ PUSH2 0x7BA JUMPI PUSH2 0x7D6 JUMP JUMPDEST PUSH1 0x1 SWAP2 POP POP PUSH2 0x81B JUMP JUMPDEST PUSH1 0xFF DUP5 GT ISZERO PUSH2 0x7CB JUMPI PUSH2 0x7CB PUSH2 0x725 JUMP JUMPDEST POP POP PUSH1 0x1 DUP3 SHL PUSH2 0x81B JUMP JUMPDEST POP PUSH1 0x20 DUP4 LT PUSH2 0x133 DUP4 LT AND PUSH1 0x4E DUP5 LT PUSH1 0xB DUP5 LT AND OR ISZERO PUSH2 0x7F9 JUMPI POP DUP2 DUP2 EXP PUSH2 0x81B JUMP JUMPDEST PUSH2 0x803 DUP4 DUP4 PUSH2 0x73B JUMP JUMPDEST DUP1 PUSH1 0x0 NOT DIV DUP3 GT ISZERO PUSH2 0x817 JUMPI PUSH2 0x817 PUSH2 0x725 JUMP JUMPDEST MUL SWAP1 POP JUMPDEST SWAP3 SWAP2 POP POP JUMP JUMPDEST PUSH1 0x0 PUSH2 0x6E7 DUP4 DUP4 PUSH2 0x77E JUMP JUMPDEST DUP1 DUP3 MUL DUP2 ISZERO DUP3 DUP3 DIV DUP5 EQ OR PUSH2 0x81B JUMPI PUSH2 0x81B PUSH2 0x725 JUMP JUMPDEST PUSH1 0x0 DUP3 PUSH2 0x861 JUMPI PUSH4 0x4E487B71 PUSH1 0xE0 SHL PUSH1 0x0 MSTORE PUSH1 0x12 PUSH1 0x4 MSTORE PUSH1 0x24 PUSH1 0x0 REVERT JUMPDEST POP DIV SWAP1 JUMP JUMPDEST DUP1 MLOAD PUSH10 0xFFFFFFFFFFFFFFFFFFFF DUP2 AND DUP2 EQ PUSH2 0x880 JUMPI PUSH1 0x0 DUP1 REVERT JUMPDEST SWAP2 SWAP1 POP JUMP JUMPDEST PUSH1 0x0 DUP1 PUSH1 0x0 DUP1 PUSH1 0x0 PUSH1 0xA0 DUP7 DUP9 SUB SLT ISZERO PUSH2 0x89D JUMPI PUSH1 0x0 DUP1 REVERT JUMPDEST PUSH2 0x8A6 DUP7 PUSH2 0x866 JUMP JUMPDEST SWAP5 POP PUSH1 0x20 DUP7 ADD MLOAD SWAP4 POP PUSH1 0x40 DUP7 ADD MLOAD SWAP3 POP PUSH1 0x60 DUP7 ADD MLOAD SWAP2 POP PUSH2 0x8C9 PUSH1 0x80 DUP8 ADD PUSH2 0x866 JUMP JUMPDEST SWAP1 POP SWAP3 SWAP6 POP SWAP3 SWAP6 SWAP1 SWAP4 POP JUMP JUMPDEST PUSH1 0x0 PUSH1 0x20 DUP3 DUP5 SUB SLT ISZERO PUSH2 0x8E7 JUMPI PUSH1 0x0 DUP1 REVERT JUMPDEST DUP2 MLOAD PUSH1 0xFF DUP2 AND DUP2 EQ PUSH2 0x6E7 JUMPI PUSH1 0x0 DUP1 REVERT INVALID LOG2 PUSH5 0x6970667358 0x22 SLT KECCAK256 0xEC PUSH1 0x71 0xDF LOG4 0x22 ADDMOD DUP3 CALLVALUE 0xD5 RETURN MSTORE PUSH24 0x685402F09DB56CCA4B3A03E2BA2902B17A57F64736F6C63 NUMBER STOP ADDMOD SGT STOP CALLER ",
  "sha1": "5a7bc825e6c1afe84235eec8e50df1a08f77d79a",
  "source": "// SPDX-License-Identifier: MIT\n\npragma solidity ^0.8.0;\n\nimport \"@chainlink/contracts/src/v0.8/interfaces/AggregatorV3Interface.sol\";\nimport \"./IMarket.sol\";\n\ncontract Administration {\n    //--------------------------------------------------------------------\n    // VARIABLES\n\n    address payable public admin;\n    address public ethUsdPriceFeed;\n\n    address public marketContractAddress;\n    address public storeFactoryAddress;\n    address public auctionMarketContractAddress;\n\n    //--------------------------------------------------------------------\n    // MODIFIERS\n\n    modifier onlyAdmin() {\n        require(msg.sender == admin, \"only admin can call this\");\n        _;\n    }\n\n    //--------------------------------------------------------------------\n    // CONSTRUCTOR\n\n    constructor(address _ethUsdPriceFeed) {\n        admin = payable(msg.sender);\n        ethUsdPriceFeed = _ethUsdPriceFeed;\n    }\n\n    // Allow factory contract to recieve ether\n    receive() external payable {}\n\n    //--------------------------------------------------------------------\n    // FUNCTIONS\n\n    function setMarketContractAddress(address _mainMarketAddress)\n        external\n        onlyAdmin\n    {\n        marketContractAddress = _mainMarketAddress;\n    }\n\n    function setStoreFactoryAddress(address _storeFactoryAddress)\n        external\n        onlyAdmin\n    {\n        storeFactoryAddress = _storeFactoryAddress;\n    }\n\n    function setAuctionMarketContractAddress(address _auctionsContractAddress)\n        external\n        onlyAdmin\n    {\n        auctionMarketContractAddress = _auctionsContractAddress;\n    }\n\n    function changeMarketFee(uint256 _newFee) external onlyAdmin {\n        IMarket(marketContractAddress).changeFee(_newFee);\n    }\n\n    function changeAuctionFee(uint256 _newFee) external onlyAdmin {\n        IMarket(auctionMarketContractAddress).changeFee(_newFee);\n    }\n\n    function changeStoreFee(uint256 _newFee) external onlyAdmin {\n        IStoreFactory(storeFactoryAddress).changeCreateStoreFee(_newFee);\n    }\n\n    function withdrawBalance() public onlyAdmin {\n        admin.transfer(address(this).balance);\n    }\n\n    /**\n     * @dev Get current ETH/USD price using ChainLink price feed\n     * @return the ETH/USD price , the number of decimals used for this price\n     */\n\n    function getPrice() public returns (uint256, uint256) {\n        AggregatorV3Interface priceFeed = AggregatorV3Interface(\n            ethUsdPriceFeed\n        );\n        (, int256 price, , , ) = priceFeed.latestRoundData();\n        uint256 decimals = priceFeed.decimals();\n        return (uint256(price), decimals);\n    }\n\n    function convertUSDToETH(uint256 amountInUSD) public returns (uint256) {\n        (uint256 price, uint256 decimals) = getPrice();\n        uint256 convertedPrice = (amountInUSD * 10**decimals) / price;\n        return convertedPrice;\n    }\n}\n",
  "sourcePath": "contracts/Administration.sol",
  "type": "contract"
}